{
  "contractName": "Exchange",
  "abi": [
    {
      "constant": true,
      "inputs": [
        {
          "name": "symbolName",
          "type": "string"
        }
      ],
      "name": "getBuyOrderBook",
      "outputs": [
        {
          "name": "",
          "type": "uint256[]"
        },
        {
          "name": "",
          "type": "uint256[]"
        }
      ],
      "payable": false,
      "stateMutability": "view",
      "type": "function"
    },
    {
      "constant": true,
      "inputs": [],
      "name": "getEthBalanceInWei",
      "outputs": [
        {
          "name": "",
          "type": "uint256"
        }
      ],
      "payable": false,
      "stateMutability": "view",
      "type": "function"
    },
    {
      "constant": false,
      "inputs": [
        {
          "name": "symbolName",
          "type": "string"
        },
        {
          "name": "amount",
          "type": "uint256"
        }
      ],
      "name": "depositToken",
      "outputs": [],
      "payable": false,
      "stateMutability": "nonpayable",
      "type": "function"
    },
    {
      "constant": true,
      "inputs": [
        {
          "name": "symbolName",
          "type": "string"
        }
      ],
      "name": "getBalance",
      "outputs": [
        {
          "name": "",
          "type": "uint256"
        }
      ],
      "payable": false,
      "stateMutability": "view",
      "type": "function"
    },
    {
      "constant": false,
      "inputs": [
        {
          "name": "amountInWei",
          "type": "uint256"
        }
      ],
      "name": "withdrawEther",
      "outputs": [],
      "payable": false,
      "stateMutability": "nonpayable",
      "type": "function"
    },
    {
      "constant": false,
      "inputs": [
        {
          "name": "symbolName",
          "type": "string"
        },
        {
          "name": "priceInWei",
          "type": "uint256"
        },
        {
          "name": "amount",
          "type": "uint256"
        }
      ],
      "name": "buyToken",
      "outputs": [],
      "payable": false,
      "stateMutability": "nonpayable",
      "type": "function"
    },
    {
      "constant": true,
      "inputs": [
        {
          "name": "symbolName",
          "type": "string"
        }
      ],
      "name": "getSellOrderBook",
      "outputs": [
        {
          "name": "",
          "type": "uint256[]"
        },
        {
          "name": "",
          "type": "uint256[]"
        }
      ],
      "payable": false,
      "stateMutability": "view",
      "type": "function"
    },
    {
      "constant": false,
      "inputs": [
        {
          "name": "symbolName",
          "type": "string"
        },
        {
          "name": "priceInWei",
          "type": "uint256"
        },
        {
          "name": "amount",
          "type": "uint256"
        }
      ],
      "name": "sellToken",
      "outputs": [],
      "payable": false,
      "stateMutability": "nonpayable",
      "type": "function"
    },
    {
      "constant": true,
      "inputs": [
        {
          "name": "symbolName",
          "type": "string"
        }
      ],
      "name": "hasToken",
      "outputs": [
        {
          "name": "",
          "type": "bool"
        }
      ],
      "payable": false,
      "stateMutability": "view",
      "type": "function"
    },
    {
      "constant": true,
      "inputs": [
        {
          "name": "symbolName",
          "type": "string"
        }
      ],
      "name": "getSymbolIndexOrThrow",
      "outputs": [
        {
          "name": "",
          "type": "uint8"
        }
      ],
      "payable": false,
      "stateMutability": "view",
      "type": "function"
    },
    {
      "constant": false,
      "inputs": [],
      "name": "depositEther",
      "outputs": [],
      "payable": true,
      "stateMutability": "payable",
      "type": "function"
    },
    {
      "constant": false,
      "inputs": [
        {
          "name": "symbolName",
          "type": "string"
        },
        {
          "name": "erc20TokenAddress",
          "type": "address"
        }
      ],
      "name": "addToken",
      "outputs": [],
      "payable": false,
      "stateMutability": "nonpayable",
      "type": "function"
    },
    {
      "constant": false,
      "inputs": [
        {
          "name": "symbolName",
          "type": "string"
        },
        {
          "name": "amount",
          "type": "uint256"
        }
      ],
      "name": "withdrawToken",
      "outputs": [],
      "payable": false,
      "stateMutability": "nonpayable",
      "type": "function"
    },
    {
      "constant": false,
      "inputs": [
        {
          "name": "symbolName",
          "type": "string"
        },
        {
          "name": "isSellOrder",
          "type": "bool"
        },
        {
          "name": "priceInWei",
          "type": "uint256"
        },
        {
          "name": "offerKey",
          "type": "uint256"
        }
      ],
      "name": "cancelOrder",
      "outputs": [],
      "payable": false,
      "stateMutability": "nonpayable",
      "type": "function"
    },
    {
      "anonymous": false,
      "inputs": [
        {
          "indexed": true,
          "name": "_from",
          "type": "address"
        },
        {
          "indexed": true,
          "name": "_symbolIndex",
          "type": "uint256"
        },
        {
          "indexed": false,
          "name": "_amount",
          "type": "uint256"
        },
        {
          "indexed": false,
          "name": "_timestamp",
          "type": "uint256"
        }
      ],
      "name": "DepositForTokenReceived",
      "type": "event"
    },
    {
      "anonymous": false,
      "inputs": [
        {
          "indexed": true,
          "name": "_to",
          "type": "address"
        },
        {
          "indexed": true,
          "name": "_symbolIndex",
          "type": "uint256"
        },
        {
          "indexed": false,
          "name": "_amount",
          "type": "uint256"
        },
        {
          "indexed": false,
          "name": "_timestamp",
          "type": "uint256"
        }
      ],
      "name": "WithdrawalToken",
      "type": "event"
    },
    {
      "anonymous": false,
      "inputs": [
        {
          "indexed": true,
          "name": "_from",
          "type": "address"
        },
        {
          "indexed": false,
          "name": "_amount",
          "type": "uint256"
        },
        {
          "indexed": false,
          "name": "_timestamp",
          "type": "uint256"
        }
      ],
      "name": "DepositForEthReceived",
      "type": "event"
    },
    {
      "anonymous": false,
      "inputs": [
        {
          "indexed": true,
          "name": "_to",
          "type": "address"
        },
        {
          "indexed": false,
          "name": "_amount",
          "type": "uint256"
        },
        {
          "indexed": false,
          "name": "_timestamp",
          "type": "uint256"
        }
      ],
      "name": "WithdrawalEth",
      "type": "event"
    },
    {
      "anonymous": false,
      "inputs": [
        {
          "indexed": true,
          "name": "_symbolIndex",
          "type": "uint256"
        },
        {
          "indexed": true,
          "name": "_from",
          "type": "address"
        },
        {
          "indexed": false,
          "name": "_amount",
          "type": "uint256"
        },
        {
          "indexed": false,
          "name": "_fee",
          "type": "uint256"
        },
        {
          "indexed": false,
          "name": "_timestamp",
          "type": "uint256"
        }
      ],
      "name": "TransactionFeeApplied",
      "type": "event"
    },
    {
      "anonymous": false,
      "inputs": [
        {
          "indexed": true,
          "name": "_symbolIndex",
          "type": "uint256"
        },
        {
          "indexed": true,
          "name": "_who",
          "type": "address"
        },
        {
          "indexed": false,
          "name": "_amountTokens",
          "type": "uint256"
        },
        {
          "indexed": false,
          "name": "_priceInWei",
          "type": "uint256"
        },
        {
          "indexed": false,
          "name": "_orderKey",
          "type": "uint256"
        }
      ],
      "name": "LimitSellOrderCreated",
      "type": "event"
    },
    {
      "anonymous": false,
      "inputs": [
        {
          "indexed": true,
          "name": "_symbolIndex",
          "type": "uint256"
        },
        {
          "indexed": false,
          "name": "_amount",
          "type": "uint256"
        },
        {
          "indexed": false,
          "name": "_priceInWei",
          "type": "uint256"
        },
        {
          "indexed": false,
          "name": "_orderKey",
          "type": "uint256"
        }
      ],
      "name": "SellOrderFulfilled",
      "type": "event"
    },
    {
      "anonymous": false,
      "inputs": [
        {
          "indexed": true,
          "name": "_symbolIndex",
          "type": "uint256"
        },
        {
          "indexed": false,
          "name": "_priceInWei",
          "type": "uint256"
        },
        {
          "indexed": false,
          "name": "_orderKey",
          "type": "uint256"
        }
      ],
      "name": "SellOrderCanceled",
      "type": "event"
    },
    {
      "anonymous": false,
      "inputs": [
        {
          "indexed": true,
          "name": "_symbolIndex",
          "type": "uint256"
        },
        {
          "indexed": true,
          "name": "_who",
          "type": "address"
        },
        {
          "indexed": false,
          "name": "_amountTokens",
          "type": "uint256"
        },
        {
          "indexed": false,
          "name": "_priceInWei",
          "type": "uint256"
        },
        {
          "indexed": false,
          "name": "_orderKey",
          "type": "uint256"
        }
      ],
      "name": "LimitBuyOrderCreated",
      "type": "event"
    },
    {
      "anonymous": false,
      "inputs": [
        {
          "indexed": true,
          "name": "_symbolIndex",
          "type": "uint256"
        },
        {
          "indexed": false,
          "name": "_amount",
          "type": "uint256"
        },
        {
          "indexed": false,
          "name": "_priceInWei",
          "type": "uint256"
        },
        {
          "indexed": false,
          "name": "_orderKey",
          "type": "uint256"
        }
      ],
      "name": "BuyOrderFulfilled",
      "type": "event"
    },
    {
      "anonymous": false,
      "inputs": [
        {
          "indexed": true,
          "name": "_symbolIndex",
          "type": "uint256"
        },
        {
          "indexed": false,
          "name": "_priceInWei",
          "type": "uint256"
        },
        {
          "indexed": false,
          "name": "_orderKey",
          "type": "uint256"
        }
      ],
      "name": "BuyOrderCanceled",
      "type": "event"
    },
    {
      "anonymous": false,
      "inputs": [
        {
          "indexed": false,
          "name": "_symbolIndex",
          "type": "uint256"
        },
        {
          "indexed": false,
          "name": "_token",
          "type": "string"
        },
        {
          "indexed": false,
          "name": "_timestamp",
          "type": "uint256"
        }
      ],
      "name": "TokenAddedToSystem",
      "type": "event"
    }
  ],
  "bytecode": "0x60606040526002805460ff19168117905560008054600160a060020a033316600160a060020a0319909116179055612a9a8061003c6000396000f300606060405236156100b45763ffffffff60e060020a60003504166303bc4a2781146100b95780631a8eb72b146101a357806333ad57e4146101c85780633a51d2461461021d5780633bed33ce1461026e5780635ab8ea3314610284578063728ff029146102dc578063851030fe1461032d5780638ea0081814610385578063977377f8146103ea57806398ea5fca14610451578063b0b22c2c14610459578063c97a413a146104b5578063d1a3b02514610508575b600080fd5b34156100c457600080fd5b61010a60046024813581810190830135806020601f8201819004810201604051908101604052818152929190602084018383808284375094965061056795505050505050565b604051808060200180602001838103835285818151815260200191508051906020019060200280838360005b8381101561014e578082015183820152602001610136565b50505050905001838103825284818151815260200191508051906020019060200280838360005b8381101561018d578082015183820152602001610175565b5050505090500194505050505060405180910390f35b34156101ae57600080fd5b6101b6610776565b60405190815260200160405180910390f35b34156101d357600080fd5b61021b60046024813581810190830135806020601f82018190048102016040519081016040528181529291906020840183838082843750949650509335935061079392505050565b005b341561022857600080fd5b6101b660046024813581810190830135806020601f8201819004810201604051908101604052818152929190602084018383808284375094965061091995505050505050565b341561027957600080fd5b61021b600435610957565b341561028f57600080fd5b61021b60046024813581810190830135806020601f8201819004810201604051908101604052818152929190602084018383808284375094965050843594602001359350610a3492505050565b34156102e757600080fd5b61010a60046024813581810190830135806020601f8201819004810201604051908101604052818152929190602084018383808284375094965061111e95505050505050565b341561033857600080fd5b61021b60046024813581810190830135806020601f820181900481020160405190810160405281815292919060208401838380828437509496505084359460200135935061131692505050565b341561039057600080fd5b6103d660046024813581810190830135806020601f82018190048102016040519081016040528181529291906020840183838082843750949650611ada95505050505050565b604051901515815260200160405180910390f35b34156103f557600080fd5b61043b60046024813581810190830135806020601f82018190048102016040519081016040528181529291906020840183838082843750949650611b0495505050505050565b60405160ff909116815260200160405180910390f35b61021b611b28565b341561046457600080fd5b61021b60046024813581810190830135806020601f8201819004810201604051908101604052818152929190602084018383808284375094965050509235600160a060020a03169250611bad915050565b34156104c057600080fd5b61021b60046024813581810190830135806020601f820181900481020160405190810160405281815292919060208401838380828437509496505093359350611d4092505050565b341561051357600080fd5b61021b60046024813581810190830135806020601f82018190048102016040519081016040528181529291906020840183838082843750949650505050823515159260208101359250604001359050611eed565b61056f6129a4565b6105776129a4565b60006105816129a4565b6105896129a4565b6000806000806105988a611b04565b60ff81166000908152600160205260409081902060050154919850518059106105be5750595b908082528060200260200182016040525060ff88166000908152600160205260409081902060050154919750518059106105f55750595b908082528060200260200182016040525060ff8816600090815260016020526040812060048101546003909101549297509550935083901115610766575b60ff87166000908152600160205260409020600301548411610766578386848151811061065c57fe5b602090810290910181019190915260ff881660009081526001825260408082208783526002019092529081206003015490925090505b60ff8716600090815260016020908152604080832087845260020190915290206004015481116106f45760ff87166000908152600160208181526040808420888552600290810183528185208686520190915290912054929092019101610692565b8185848151811061070157fe5b602090810290910181019190915260ff88166000908152600182526040808220878352600201909252205484141561073857610766565b60ff871660009081526001602081815260408084209784526002909701905294902054939290920191610633565b5093989297509195505050505050565b600160a060020a0333166000908152600460205260409020545b90565b60008061079f84611b04565b60ff8116600090815260016020526040902054909250600160a060020a031615156107c957600080fd5b5060ff811660009081526001602052604080822054600160a060020a03169182916323b872dd91339130918891516020015260405160e060020a63ffffffff8616028152600160a060020a0393841660048201529190921660248201526044810191909152606401602060405180830381600087803b151561084a57600080fd5b6102c65a03f1151561085b57600080fd5b50505060405180511515600114905061087357600080fd5b33600160a060020a0316600090815260036020908152604080832060ff8616845290915290205483810110156108a857600080fd5b600160a060020a033316600081815260036020908152604080832060ff871680855292529182902080548701905591907fc0aa5496c7b01c4b317a58e270b45f383bcd6ae57f9e5124db9c0674b777649990869042905191825260208201526040908101905180910390a350505050565b60008061092583611b04565b600160a060020a033316600090815260036020908152604080832060ff85168452909152902054925090505b50919050565b600160a060020a033316600090815260046020526040812054829003101561097e57600080fd5b600160a060020a03331660009081526004602052604090205481810311156109a557600080fd5b600160a060020a033316600081815260046020526040908190208054849003905582156108fc0290839051600060405180830381858888f1935050505015156109ed57600080fd5b33600160a060020a03167fac9513adf40097763b4664bee3693d0f051127c5ac55e33f68926c1612ac5995824260405191825260208201526040908101905180910390a250565b6000806000806000806000610a488a611b04565b60ff811660009081526001602052604081206009015491985096501580610a84575060ff87166000908152600160205260409020600701548990115b15610bca57878902955087861015610a9b57600080fd5b88861015610aa857600080fd5b600160a060020a03331660009081526004602052604090205486901015610ace57600080fd5b600160a060020a0333166000908152600460205260408120548790031015610af557600080fd5b600160a060020a0333166000908152600460205260409020548681031115610b1c57600080fd5b33600160a060020a038116600090815260046020526040902080548890039055610b4b9088908b908b9061215e565b60ff871660008181526001602090815260408083208d84526002019091529081902060040154600160a060020a03331692917f2ef51fa215957689865f55575d7d89840bee8fce54b23ef826fea1a304acdd3f918c918e91905180848152602001838152602001828152602001935050505060405180910390a3611112565b60ff871660009081526001602052604081206007015490955093508792505b888411158015610bf95750600083115b156110fe5760ff8716600090815260016020908152604080832087845260060190915290206003015491505b60ff871660009081526001602090815260408083208784526006019091529020600401548211801590610c585750600083115b156110e1575060ff861660009081526001602090815260408083208684526006018252808320848452600201909152902054828111610e3b57600160a060020a033316600090815260046020526040902054818502955085901015610cbc57600080fd5b600160a060020a0333166000908152600460205260409020548581031115610ce357600080fd5b33600160a060020a03166000908152600460209081526040808320805489900390556003825280832060ff8b1684529091529020548181011015610d2657600080fd5b60ff871660009081526001602081815260408084208885526006018252808420868552600201825280842090920154600160a060020a03168352600490529020548581011015610d7557600080fd5b610d80873383612447565b600160a060020a03338116600090815260036020818152604080842060ff8e16808652908352818520805490970190965560018083528185208b86526006018084528286208a875260028101855283872087815583015490971686526004845282862080548e019055948b905293909152920180549091019055600080516020612a4f833981519152908390879086905180848152602001838152602001828152602001935050505060405180910390a28083039250610fc1565b60ff871660009081526001602090815260408083208784526006018252808320858452600201909152902054839011610e7357600080fd5b600160a060020a03331660009081526004602052604090205483850296508681031115610e9f57600080fd5b600160a060020a03338116600090815260046020818152604080842080548c9003905560ff8c16845260018083528185208a865260060183528185208886526002018352818520015490941683525220548087011015610efe57600080fd5b60ff87166000908152600160208181526040808420888552600601825280842086855260020182528084208054889003815590920154600160a060020a03168352600490529020805487019055610f56873385612447565b600160a060020a033316600090815260036020908152604080832060ff8c168085529252808320805490940190935590945090600080516020612a4f833981519152908590879086905180848152602001838152602001828152602001935050505060405180910390a25b60ff871660009081526001602090815260408083208784526006019091529020600401548214801561101c575060ff871660009081526001602090815260408083208784526006018252808320858452600201909152902054155b156110d65760ff87166000908152600160209081526040808320600981018054600019019055878452600601909152902054841480611079575060ff87166000908152600160209081526040808320878452600201909152902054155b156110995760ff87166000908152600160205260408120600701556110d6565b60ff871660009081526001602081815260408084208885526006810180845282862054600783015560029091018352818520548552909152822001555b600190910190610c25565b60ff87166000908152600160205260409020600701549350610be9565b6000831115611112576111128a8a85610a34565b50505050505050505050565b6111266129a4565b61112e6129a4565b60006111386129a4565b6111406129a4565b60008060008061114f8a611b04565b60ff81166000908152600160205260409081902060090154919850518059106111755750595b908082528060200260200182016040525060ff88166000908152600160205260409081902060090154919750518059106111ac5750595b908082528060200260200182016040525060ff8816600090815260016020526040812060070154919650909450925082841115610766575b60ff87166000908152600160205260409020600801548411610766578386848151811061120d57fe5b602090810290910181019190915260ff881660009081526001825260408082208783526006019092529081206003015490925090505b60ff8716600090815260016020908152604080832087845260060190915290206004015481116112a55760ff87166000908152600160208181526040808420888552600601825280842085855260020190915290912054929092019101611243565b818584815181106112b257fe5b602090810290910181019190915260ff88166000908152600182526040808220878352600601909252205415156112e857610766565b60ff8716600090815260016020818152604080842097845260069097019052949020549392909201916111e4565b600080600080600080600061132a8a611b04565b60ff811660009081526001602052604081206005015491985096508695501580611369575060ff87166000908152600160205260409020600301548990105b156114d95787890295508786101561138057600080fd5b8886101561138d57600080fd5b600160a060020a033316600090815260036020908152604080832060ff8b168452909152902054889010156113c157600080fd5b600160a060020a033316600090815260036020908152604080832060ff8b16845290915281205489900310156113f657600080fd5b600160a060020a033316600090815260046020526040902054868101101561141d57600080fd5b33600160a060020a038116600090815260036020908152604080832060ff8c168452909152902080548a9003905561145a9088908b908b90612548565b60ff871660008181526001602090815260408083208d84526006019091529081902060040154600160a060020a03331692917fc7d136f10bcb424de2ff60d5473d863ed2fdcd5d352e045d89ee9581f54f6afb918c918e91905180848152602001838152602001828152602001935050505060405180910390a3611112565b60ff871660009081526001602052604090206003015493508792505b8884101580156115055750600083115b15611ac65760ff8716600090815260016020908152604080832087845260020190915290206003015491505b60ff8716600090815260016020908152604080832087845260020190915290206004015482118015906115645750600083115b15611aa9575060ff86166000908152600160209081526040808320868452600290810183528184208585520190915290205482811161179757600160a060020a033316600090815260036020908152604080832060ff8b1684529091529020548185029550819010156115d657600080fd5b33600160a060020a0316600090815260036020908152604080832060ff8b1684529091528120805483900390819055829003101561161357600080fd5b60ff871660008181526001602081815260408084208985526002908101835281852088865201825280842090920154600160a060020a0316835260038152818320938352929092522054818101101561166b57600080fd5b600160a060020a033316600090815260046020526040902054858101101561169257600080fd5b60ff87166000908152600160208181526040808420888552600290810183528185208786520190915290912001546116d5908890600160a060020a031683612447565b60ff881660008181526001602081815260408084208a855260029081018084528286208a8752918201845282862080860154600160a060020a03908116885260038087528589208a8a5287528589208054909b01909a5590879055331686526004845282862080548e019055948b90529390915291909301805490930190925590600080516020612a4f833981519152908390879086905180848152602001838152602001828152602001935050505060405180910390a2808303925061198d565b6000838203116117a657600080fd5b600160a060020a033316600090815260036020908152604080832060ff8b1684529091529020548385029650839010156117df57600080fd5b33600160a060020a0316600090815260036020908152604080832060ff8b16845290915290208054849003908190558390101561181b57600080fd5b600160a060020a033316600090815260046020526040902054868101101561184257600080fd5b60ff871660008181526001602081815260408084208985526002908101835281852088865201825280842090920154600160a060020a0316835260038152818320938352929092522054838101101561189a57600080fd5b60ff87166000908152600160208181526040808420888552600290810183528185208786520180835281852080548990038155600160a060020a0333811687526004855292862080548d019055948790529091529101546118fe9189911685612447565b60ff881660008181526001602081815260408084208a85526002908101835281852089865201825280842090920154600160a060020a0316835260038152818320848452905290819020805490930190925590600080516020612a4f833981519152908590879086905180848152602001838152602001828152602001935050505060405180910390a2600092505b60ff87166000908152600160209081526040808320878452600201909152902060040154821480156119e8575060ff871660009081526001602090815260408083208784526002908101835281842086855201909152902054155b15611a9e5760ff871660009081526001602081815260408084206005810180546000190190558885526002019091529091200154841480611a49575060ff871660009081526001602081815260408084208885526002019091529091200154155b15611a695760ff8716600090815260016020526040812060030155611a9e565b60ff87166000908152600160208181526040808420888552600281019092528084209092015460039091018190558083529120555b600190910190611531565b60ff871660009081526001602052604090206003015493506114f5565b6000831115611112576111128a8a85611316565b600080611ae683612827565b905060ff81161515611afb5760009150610951565b50600192915050565b600080611b1083612827565b9050600060ff821611611b2257600080fd5b92915050565b600160a060020a0333166000908152600460205260409020543481011015611b4f57600080fd5b600160a060020a033316600081815260046020526040908190208054349081019091557f42dbebeb8f6fb795e3007753aef2d4b1a292dd123f6de06a41050186741506379142905191825260208201526040908101905180910390a2565b60005433600160a060020a0390811691161415611d3c57611bcd82611ada565b15611bd757600080fd5b60025460ff61010090910481166001810190911611611bf557600080fd5b6002805460ff610100808304821660019081018316820261ff00199094169390931793849055909204909116600090815260208290526040902001828051611c419291602001906129b6565b50600280546101009081900460ff90811660009081526001602052604090819020805473ffffffffffffffffffffffffffffffffffffffff1916600160a060020a03871617905592547f6c71eb76d5d82031f490d3e44dc01d298444e569078199b14510435d81b59ff79392900416908490429051808460ff16815260200180602001838152602001828103825284818151815260200191508051906020019080838360005b83811015611cff578082015183820152602001611ce7565b50505050905090810190601f168015611d2c5780820380516001836020036101000a031916815260200191505b5094505050505060405180910390a15b5050565b600080611d4c84611b04565b60ff8116600090815260016020526040902054909250600160a060020a03161515611d7657600080fd5b5060ff8116600081815260016020908152604080832054600160a060020a03338116855260038452828520958552949092528220549216918490031015611dbc57600080fd5b33600160a060020a0316600090815260036020908152604080832060ff861684529091529020548381031115611df157600080fd5b600160a060020a0333818116600090815260036020908152604080832060ff88168452909152808220805488900390559284169263a9059cbb92918791516020015260405160e060020a63ffffffff8516028152600160a060020a0390921660048301526024820152604401602060405180830381600087803b1515611e7657600080fd5b6102c65a03f11515611e8757600080fd5b505050604051805115156001149050611e9f57600080fd5b8160ff1633600160a060020a03167faed5c5198ccd7615c0128c72fcfc060e97b14315cb791a46bf42b5b6f36c38b9854260405191825260208201526040908101905180910390a350505050565b6000806000611efb87611b04565b925085156120345760ff831660009081526001602081815260408084208985526006018252808420888552600201909152909120015433600160a060020a03908116911614611f4957600080fd5b60ff83166000818152600160209081526040808320898452600601825280832088845260020182528083205433600160a060020a0316845260038352818420948452939091529020549092508083011015611fa357600080fd5b600160a060020a033316600090815260036020908152604080832060ff871680855290835281842080548701905560018352818420898552600601835281842088855260020190925280832092909255907fffac5f4941e92bc6814610a825eeff0ae9bb4a17d47c0e2353c6889b2b550fb890879087905191825260208201526040908101905180910390a2612155565b60ff831660009081526001602081815260408084208985526002908101835281852089865201909152909120015433600160a060020a0390811691161461207a57600080fd5b5060ff821660009081526001602090815260408083208784526002908101835281842087855201825280832054600160a060020a03331684526004909252909120549085029080820110156120ce57600080fd5b600160a060020a033316600090815260046020908152604080832080548501905560ff861680845260018352818420898552600290810184528285208986520190925280832092909255907f5f2fdca15d8ab2ad3f590066add3054471b3603ca44a66f12e124e9c97ec195590879087905191825260208201526040908101905180910390a25b50505050505050565b60ff84166000908152600160208181526040808420878552600201909152808320600401805490920190915581908190819080519081016040908152878252600160a060020a03871660208084019190915260ff8b166000908152600182528281208b8252600290810183528382206004810154835201909152208151815560208201516001918201805473ffffffffffffffffffffffffffffffffffffffff1916600160a060020a039290921691909117905560ff8a166000908152602082815260408083208c84526002019091529020600401541415905061243d5760ff881660008181526001602081815260408084208c8552600281018352908420600390810184905594909352819052600582018054909101905590810154600490910154909450925082158061229257508683115b1561231d578315156122cf5760ff88166000908152600160208181526040808420600381018c90558b855260020190915282208981550155612300565b60ff8816600090815260016020818152604080842087855260020190915280832082018a9055898352822085815501555b60ff8816600090815260016020526040902060040187905561243d565b868410156123685760ff881660008181526001602081815260408084208985526002810183528185208d90558c85529084208c8155830189905593909252905260030187905561243d565b505060ff8616600090815260016020526040812060030154905b600082118015612390575080155b1561243d5786821080156123c4575060ff881660009081526001602090815260408083208584526002019091529020548790115b15612411575060ff871660009081526001602081815260408084208a8552600201909152808320808301859055848452818420805491829055908452908320820189905591839052908790555b60ff88166000908152600160208181526040808420958452600290950190529290209091015490612382565b5050505050505050565b60025460009060ff16821161245b57600080fd5b60025460ff16820382901061246f57600080fd5b30600160a060020a0316600090815260036020908152604080832060ff88811685529252909120546002549091168101116124a957600080fd5b60028054600160a060020a03308116600090815260036020908152604080832060ff8b8116808652919093529281902080549583169590950190945593549187169390927fbfea242e2f23fa87647dff889d876e6aa1c8c42e54f231df2f9b1beeaba547fb9287921690429051808481526020018360ff168152602001828152602001935050505060405180910390a35060025460ff16900392915050565b60ff84166000908152600160208181526040808420878552600601909152808320600401805490920190915581908190819080519081016040908152878252600160a060020a03871660208084019190915260ff8b166000908152600182528281208b8252600601825282812060048101548252600201909152208151815560208201516001918201805473ffffffffffffffffffffffffffffffffffffffff1916600160a060020a039290921691909117905560ff8a166000908152602082815260408083208c84526006019091529020600401541415905061243d5760ff881660008181526001602081815260408084208c8552600681018352908420600301839055939092529081905260098201805490910190556007810154600890910154909450925082158061267c57508683105b15612707578315156126b95760ff88166000908152600160208181526040808420600781018c90558b8552600601909152822082815501556126ea565b60ff881660009081526001602081815260408084208785526006019091528083208a90558983528220908101859055555b60ff8816600090815260016020526040902060080187905561243d565b868411156127545760ff8816600081815260016020818152604080842089855260068101835281852084018d90558c8552908420898155830184905593909252905260070187905561243d565b505060ff8616600090815260016020526040812060070154905b60008211801561277c575080155b1561243d5786821080156127b0575060ff881660009081526001602090815260408083208584526006019091529020548790115b156127fd575060ff871660009081526001602081815260408084208a8552600601909152808320808301859055848452818420805491829055908452908320820189905591839052908790555b60ff881660009081526001602090815260408083209483526006909401905291909120549061276e565b600060015b60025460ff6101009091048116908216116128765760ff8116600090815260016020819052604090912061286191018461287f565b1561286e57809150610951565b60010161282c565b50600092915050565b60008061288a6129a4565b508390508260008151835460026000196101006001841615020190911604146128b6576000935061299b565b5060005b825460026000196101006001841615020190911604811015612996578181815181106128e257fe5b016020015160f860020a900460f860020a027effffffffffffffffffffffffffffffffffffffffffffffffffffffffffffff19168382815460018160011615610100020316600290048110151561293557fe5b8154600116156129545790600052602060002090602091828204019190065b9054901a60f860020a027fff00000000000000000000000000000000000000000000000000000000000000161461298e576000935061299b565b6001016128ba565b600193505b50505092915050565b60206040519081016040526000815290565b828054600181600116156101000203166002900490600052602060002090601f016020900481019282601f106129f757805160ff1916838001178555612a24565b82800160010185558215612a24579182015b82811115612a24578251825591602001919060010190612a09565b50612a30929150612a34565b5090565b61079091905b80821115612a305760008155600101612a3a5600cbfa5edcd918ef1ec42746c71ac83c456f37330c83a22e44d6cfdca22d564710a165627a7a72305820c00592e877760923cac26ad28edca06223d5e449bd6f78c6c9b9608fbd7daaf20029",
  "source": "pragma solidity ^0.4.13;\n\n\nimport \"./owned.sol\";\nimport \"./FixedSupplyToken.sol\";\n\n\ncontract Exchange is owned {\n\n    ///////////////////////\n    // GENERAL STRUCTURE //\n    ///////////////////////\n    struct Offer {\n\n    uint amount;\n    address who;\n    }\n\n    struct OrderBook {\n\n    uint higherPrice;\n    uint lowerPrice;\n\n    mapping (uint => Offer) offers;\n\n    uint offers_key;\n    uint offers_length;\n    }\n\n    struct Token {\n\n    address tokenContract;\n\n    string symbolName;\n\n\n    mapping (uint => OrderBook) buyBook;\n\n    uint curBuyPrice;\n    uint lowestBuyPrice;\n    uint amountBuyPrices;\n\n\n    mapping (uint => OrderBook) sellBook;\n    uint curSellPrice;\n    uint highestSellPrice;\n    uint amountSellPrices;\n\n    }\n\n\n    //we support a max of 255 tokens...\n    mapping (uint8 => Token) tokens;\n    \n     //2 tokens ...\n    uint8 exchangeFee = 2;\n\n    uint8 symbolNameMaxIndex;\n\n\n    //////////////\n    // BALANCES //\n    //////////////\n    mapping (address => mapping (uint8 => uint)) tokenBalanceForAddress;\n\n    mapping (address => uint) balanceEthForAddress;\n\n\n\n\n    ////////////\n    // EVENTS //\n    ////////////\n\n    //EVENTS for Deposit/withdrawal\n    event DepositForTokenReceived(address indexed _from, uint indexed _symbolIndex, uint _amount, uint _timestamp);\n\n    event WithdrawalToken(address indexed _to, uint indexed _symbolIndex, uint _amount, uint _timestamp);\n\n    event DepositForEthReceived(address indexed _from, uint _amount, uint _timestamp);\n\n    event WithdrawalEth(address indexed _to, uint _amount, uint _timestamp);\n    \n    // event for transaction fee receipt\n    event TransactionFeeApplied(uint indexed _symbolIndex, address indexed _from, uint _amount, uint _fee, uint _timestamp);\n\n    //events for orders\n    event LimitSellOrderCreated(uint indexed _symbolIndex, address indexed _who, uint _amountTokens, uint _priceInWei, uint _orderKey);\n\n    event SellOrderFulfilled(uint indexed _symbolIndex, uint _amount, uint _priceInWei, uint _orderKey);\n\n    event SellOrderCanceled(uint indexed _symbolIndex, uint _priceInWei, uint _orderKey);\n\n    event LimitBuyOrderCreated(uint indexed _symbolIndex, address indexed _who, uint _amountTokens, uint _priceInWei, uint _orderKey);\n\n    event BuyOrderFulfilled(uint indexed _symbolIndex, uint _amount, uint _priceInWei, uint _orderKey);\n\n    event BuyOrderCanceled(uint indexed _symbolIndex, uint _priceInWei, uint _orderKey);\n\n    //events for management\n    event TokenAddedToSystem(uint _symbolIndex, string _token, uint _timestamp);\n\n\n\n    //////////////////////////////////\n    // DEPOSIT AND WITHDRAWAL ETHER //\n    //////////////////////////////////\n    function depositEther() payable public {\n        require(balanceEthForAddress[msg.sender] + msg.value >= balanceEthForAddress[msg.sender]);\n        balanceEthForAddress[msg.sender] += msg.value;\n        DepositForEthReceived(msg.sender, msg.value, now);\n    }\n\n    function withdrawEther(uint amountInWei) public {\n        require(balanceEthForAddress[msg.sender] - amountInWei >= 0);\n        require(balanceEthForAddress[msg.sender] - amountInWei <= balanceEthForAddress[msg.sender]);\n        balanceEthForAddress[msg.sender] -= amountInWei;\n        msg.sender.transfer(amountInWei);\n        WithdrawalEth(msg.sender, amountInWei, now);\n    }\n\n    function getEthBalanceInWei() constant public returns (uint){\n        return balanceEthForAddress[msg.sender];\n    }\n\n\n    //////////////////////\n    // TOKEN MANAGEMENT //\n    //////////////////////\n\n    function addToken(string symbolName, address erc20TokenAddress) public onlyowner {\n        require(!hasToken(symbolName));\n        require(symbolNameMaxIndex + 1 > symbolNameMaxIndex);\n        symbolNameMaxIndex++;\n\n        tokens[symbolNameMaxIndex].symbolName = symbolName;\n        tokens[symbolNameMaxIndex].tokenContract = erc20TokenAddress;\n        TokenAddedToSystem(symbolNameMaxIndex, symbolName, now);\n    }\n\n    function hasToken(string symbolName) constant public returns (bool) {\n        uint8 index = getSymbolIndex(symbolName);\n        if (index == 0) {\n            return false;\n        }\n        return true;\n    }\n\n\n    function getSymbolIndex(string symbolName) view internal returns (uint8) {\n        for (uint8 i = 1; i <= symbolNameMaxIndex; i++) {\n            if (stringsEqual(tokens[i].symbolName, symbolName)) {\n                return i;\n            }\n        }\n        return 0;\n    }\n\n\n    function getSymbolIndexOrThrow(string symbolName) view public returns (uint8) {\n        uint8 index = getSymbolIndex(symbolName);\n        require(index > 0);\n        return index;\n    }\n\n\n\n\n\n\n\n    //////////////////////////////////\n    // DEPOSIT AND WITHDRAWAL TOKEN //\n    //////////////////////////////////\n    function depositToken(string symbolName, uint amount) public {\n        uint8 symbolNameIndex = getSymbolIndexOrThrow(symbolName);\n        require(tokens[symbolNameIndex].tokenContract != address(0));\n\n        ERC20Interface token = ERC20Interface(tokens[symbolNameIndex].tokenContract);\n\n        require(token.transferFrom(msg.sender, address(this), amount) == true);\n        require(tokenBalanceForAddress[msg.sender][symbolNameIndex] + amount >= tokenBalanceForAddress[msg.sender][symbolNameIndex]);\n        tokenBalanceForAddress[msg.sender][symbolNameIndex] += amount;\n        DepositForTokenReceived(msg.sender, symbolNameIndex, amount, now);\n    }\n\n    function withdrawToken(string symbolName, uint amount) public {\n        uint8 symbolNameIndex = getSymbolIndexOrThrow(symbolName);\n        require(tokens[symbolNameIndex].tokenContract != address(0));\n\n        ERC20Interface token = ERC20Interface(tokens[symbolNameIndex].tokenContract);\n\n        require(tokenBalanceForAddress[msg.sender][symbolNameIndex] - amount >= 0);\n        require(tokenBalanceForAddress[msg.sender][symbolNameIndex] - amount <= tokenBalanceForAddress[msg.sender][symbolNameIndex]);\n\n        tokenBalanceForAddress[msg.sender][symbolNameIndex] -= amount;\n        require(token.transfer(msg.sender, amount) == true);\n        WithdrawalToken(msg.sender, symbolNameIndex, amount, now);\n    }\n\n    function getBalance(string symbolName) constant public returns (uint) {\n        uint8 symbolNameIdx = getSymbolIndexOrThrow(symbolName);\n        return tokenBalanceForAddress[msg.sender][symbolNameIdx];\n    }\n\n\n\n    /////////////////////////////\n    // ORDER BOOK - BID ORDERS //\n    /////////////////////////////\n    function getBuyOrderBook(string symbolName) constant public returns (uint[], uint[]) {\n        uint8 tokenNameIndex = getSymbolIndexOrThrow(symbolName);\n        uint[] memory arrPricesBuy = new uint[](tokens[tokenNameIndex].amountBuyPrices);\n        uint[] memory arrVolumesBuy = new uint[](tokens[tokenNameIndex].amountBuyPrices);\n\n        uint whilePrice = tokens[tokenNameIndex].lowestBuyPrice;\n        uint counter = 0;\n        if (tokens[tokenNameIndex].curBuyPrice > 0) {\n            while (whilePrice <= tokens[tokenNameIndex].curBuyPrice) {\n                arrPricesBuy[counter] = whilePrice;\n                uint volumeAtPrice = 0;\n                uint offers_key = 0;\n\n                offers_key = tokens[tokenNameIndex].buyBook[whilePrice].offers_key;\n                while (offers_key <= tokens[tokenNameIndex].buyBook[whilePrice].offers_length) {\n                    volumeAtPrice += tokens[tokenNameIndex].buyBook[whilePrice].offers[offers_key].amount;\n                    offers_key++;\n                }\n\n                arrVolumesBuy[counter] = volumeAtPrice;\n\n                //next whilePrice\n                if (whilePrice == tokens[tokenNameIndex].buyBook[whilePrice].higherPrice) {\n                    break;\n                }\n                else {\n                    whilePrice = tokens[tokenNameIndex].buyBook[whilePrice].higherPrice;\n                }\n                counter++;\n\n            }\n        }\n\n        return (arrPricesBuy, arrVolumesBuy);\n\n    }\n\n\n    /////////////////////////////\n    // ORDER BOOK - ASK ORDERS //\n    /////////////////////////////\n    function getSellOrderBook(string symbolName) constant public returns (uint[], uint[]) {\n        uint8 tokenNameIndex = getSymbolIndexOrThrow(symbolName);\n        uint[] memory arrPricesSell = new uint[](tokens[tokenNameIndex].amountSellPrices);\n        uint[] memory arrVolumesSell = new uint[](tokens[tokenNameIndex].amountSellPrices);\n        uint sellWhilePrice = tokens[tokenNameIndex].curSellPrice;\n        uint sellCounter = 0;\n        if (tokens[tokenNameIndex].curSellPrice > 0) {\n            while (sellWhilePrice <= tokens[tokenNameIndex].highestSellPrice) {\n                arrPricesSell[sellCounter] = sellWhilePrice;\n                uint sellVolumeAtPrice = 0;\n                uint sell_offers_key = 0;\n\n                sell_offers_key = tokens[tokenNameIndex].sellBook[sellWhilePrice].offers_key;\n                while (sell_offers_key <= tokens[tokenNameIndex].sellBook[sellWhilePrice].offers_length) {\n                    sellVolumeAtPrice += tokens[tokenNameIndex].sellBook[sellWhilePrice].offers[sell_offers_key].amount;\n                    sell_offers_key++;\n                }\n\n                arrVolumesSell[sellCounter] = sellVolumeAtPrice;\n\n                //next whilePrice\n                if (tokens[tokenNameIndex].sellBook[sellWhilePrice].higherPrice == 0) {\n                    break;\n                }\n                else {\n                    sellWhilePrice = tokens[tokenNameIndex].sellBook[sellWhilePrice].higherPrice;\n                }\n                sellCounter++;\n\n            }\n        }\n\n        //sell part\n        return (arrPricesSell, arrVolumesSell);\n    }\n\n\n\n\n\n    ////////////////////////////\n    // NEW ORDER - BID ORDER //\n    ///////////////////////////\n    function buyToken(string symbolName, uint priceInWei, uint amount) public{\n        uint8 tokenNameIndex = getSymbolIndexOrThrow(symbolName);\n        uint total_amount_ether_necessary = 0;\n\n        if (tokens[tokenNameIndex].amountSellPrices == 0 || tokens[tokenNameIndex].curSellPrice > priceInWei) {\n            //if we have enough ether, we can buy that:\n            total_amount_ether_necessary = amount * priceInWei;\n\n            //overflow check\n            require(total_amount_ether_necessary >= amount);\n            require(total_amount_ether_necessary >= priceInWei);\n            require(balanceEthForAddress[msg.sender] >= total_amount_ether_necessary);\n            require(balanceEthForAddress[msg.sender] - total_amount_ether_necessary >= 0);\n            require(balanceEthForAddress[msg.sender] - total_amount_ether_necessary <= balanceEthForAddress[msg.sender]);\n\n            //first deduct the amount of ether from our balance\n            balanceEthForAddress[msg.sender] -= total_amount_ether_necessary;\n\n            //limit order: we don't have enough offers to fulfill the amount\n\n            //add the order to the orderBook\n            addBuyOffer(tokenNameIndex, priceInWei, amount, msg.sender);\n            //and emit the event.\n            LimitBuyOrderCreated(tokenNameIndex, msg.sender, amount, priceInWei, tokens[tokenNameIndex].buyBook[priceInWei].offers_length);\n        }\n        else {\n            //market order: current sell price is smaller or equal to buy price!\n            // also need to deduct exchange fee\n\n            //1st: find the \"cheapest sell price\" that is lower than the buy amount  [buy: 60@5000] [sell: 50@4500] [sell: 5@5000]\n            //2: buy up the volume for 4500\n            //3: buy up the volume for 5000\n            //if still something remaining -> buyToken\n\n            //2: buy up the volume\n            //2.1 add ether to seller, add symbolName to buyer until offers_key <= offers_length\n\n            uint total_amount_ether_available = 0;\n            uint whilePrice = tokens[tokenNameIndex].curSellPrice;\n            uint amountNecessary = amount;\n            uint offers_key;\n            while (whilePrice <= priceInWei && amountNecessary > 0) {//we start with the smallest sell price.\n                offers_key = tokens[tokenNameIndex].sellBook[whilePrice].offers_key;\n                while (offers_key <= tokens[tokenNameIndex].sellBook[whilePrice].offers_length && amountNecessary > 0) {//and the first order (FIFO)\n                    uint volumeAtPriceFromAddress = tokens[tokenNameIndex].sellBook[whilePrice].offers[offers_key].amount;\n\n                    //Two choices from here:\n                    //1) one person offers not enough volume to fulfill the market order - we use it up completely and move on to the next person who offers the symbolName\n                    //2) else: we make use of parts of what a person is offering - lower his amount, fulfill out order.\n                    if (volumeAtPriceFromAddress <= amountNecessary) {\n                        total_amount_ether_available = volumeAtPriceFromAddress * whilePrice;\n\n                        require(balanceEthForAddress[msg.sender] >= total_amount_ether_available);\n                        require(balanceEthForAddress[msg.sender] - total_amount_ether_available <= balanceEthForAddress[msg.sender]);\n                        //first deduct the amount of ether from our balance\n                        balanceEthForAddress[msg.sender] -= total_amount_ether_available;\n\n                        require(tokenBalanceForAddress[msg.sender][tokenNameIndex] + volumeAtPriceFromAddress >= tokenBalanceForAddress[msg.sender][tokenNameIndex]);\n                        require(balanceEthForAddress[tokens[tokenNameIndex].sellBook[whilePrice].offers[offers_key].who] + total_amount_ether_available >= balanceEthForAddress[tokens[tokenNameIndex].sellBook[whilePrice].offers[offers_key].who]);\n                        //overflow check\n                        //this guy offers less or equal the volume that we ask for, so we use it up completely.\n                        tokenBalanceForAddress[msg.sender][tokenNameIndex] += adjustExchangeFee(tokenNameIndex, msg.sender, volumeAtPriceFromAddress);\n                        tokens[tokenNameIndex].sellBook[whilePrice].offers[offers_key].amount = 0;\n                        balanceEthForAddress[tokens[tokenNameIndex].sellBook[whilePrice].offers[offers_key].who] += total_amount_ether_available;\n                        tokens[tokenNameIndex].sellBook[whilePrice].offers_key++;\n\n                        SellOrderFulfilled(tokenNameIndex, volumeAtPriceFromAddress, whilePrice, offers_key);\n\n                        amountNecessary -= volumeAtPriceFromAddress;\n                    }\n                    else {\n                        // we need to deduct from buyer's amount\n                        require(tokens[tokenNameIndex].sellBook[whilePrice].offers[offers_key].amount > amountNecessary);//sanity\n\n                        total_amount_ether_necessary = amountNecessary * whilePrice;\n                        require(balanceEthForAddress[msg.sender] - total_amount_ether_necessary <= balanceEthForAddress[msg.sender]);\n\n                        //first deduct the amount of ether from our balance\n                        balanceEthForAddress[msg.sender] -= total_amount_ether_necessary;\n\n                        require(balanceEthForAddress[tokens[tokenNameIndex].sellBook[whilePrice].offers[offers_key].who] + total_amount_ether_necessary >= balanceEthForAddress[tokens[tokenNameIndex].sellBook[whilePrice].offers[offers_key].who]);\n                        //overflow check\n                        //this guy offers more than we ask for. We reduce his stack, add the tokens to us and the ether to him.\n                        tokens[tokenNameIndex].sellBook[whilePrice].offers[offers_key].amount -= amountNecessary;\n                        balanceEthForAddress[tokens[tokenNameIndex].sellBook[whilePrice].offers[offers_key].who] += total_amount_ether_necessary;\n                        tokenBalanceForAddress[msg.sender][tokenNameIndex] += adjustExchangeFee(tokenNameIndex, msg.sender, amountNecessary);\n                        \n\n                        amountNecessary = 0;\n                        //we have fulfilled our order\n                        SellOrderFulfilled(tokenNameIndex, amountNecessary, whilePrice, offers_key);\n                    }\n\n                    //if it was the last offer for that price, we have to set the curBuyPrice now lower. Additionally we have one offer less...\n                    if (\n                    offers_key == tokens[tokenNameIndex].sellBook[whilePrice].offers_length &&\n                    tokens[tokenNameIndex].sellBook[whilePrice].offers[offers_key].amount == 0\n                    ) {\n\n                        tokens[tokenNameIndex].amountSellPrices--;\n                        //we have one price offer less here...\n                        //next whilePrice\n                        if (whilePrice == tokens[tokenNameIndex].sellBook[whilePrice].higherPrice || tokens[tokenNameIndex].buyBook[whilePrice].higherPrice == 0) {\n                            tokens[tokenNameIndex].curSellPrice = 0;\n                            //we have reached the last price\n                        }\n                        else {\n                            tokens[tokenNameIndex].curSellPrice = tokens[tokenNameIndex].sellBook[whilePrice].higherPrice;\n                            tokens[tokenNameIndex].sellBook[tokens[tokenNameIndex].buyBook[whilePrice].higherPrice].lowerPrice = 0;\n                        }\n                    }\n                    offers_key++;\n                }\n\n                //we set the curSellPrice again, since when the volume is used up for a lowest price the curSellPrice is set there...\n                whilePrice = tokens[tokenNameIndex].curSellPrice;\n            }\n\n            if (amountNecessary > 0) {\n                buyToken(symbolName, priceInWei, amountNecessary);\n                //add a limit order!\n            }\n        }\n    }\n\n\n    ///////////////////////////\n    // BID LIMIT ORDER LOGIC //\n    ///////////////////////////\n    function addBuyOffer(uint8 tokenIndex, uint priceInWei, uint amount, address who) internal {\n        tokens[tokenIndex].buyBook[priceInWei].offers_length++;\n        tokens[tokenIndex].buyBook[priceInWei].offers[tokens[tokenIndex].buyBook[priceInWei].offers_length] = Offer(amount, who);\n\n\n        if (tokens[tokenIndex].buyBook[priceInWei].offers_length == 1) {\n            tokens[tokenIndex].buyBook[priceInWei].offers_key = 1;\n            //we have a new buy order - increase the counter, so we can set the getOrderBook array later\n            tokens[tokenIndex].amountBuyPrices++;\n\n\n            //lowerPrice and higherPrice have to be set\n            uint curBuyPrice = tokens[tokenIndex].curBuyPrice;\n\n            uint lowestBuyPrice = tokens[tokenIndex].lowestBuyPrice;\n            if (lowestBuyPrice == 0 || lowestBuyPrice > priceInWei) {\n                if (curBuyPrice == 0) {\n                    //there is no buy order yet, we insert the first one...\n                    tokens[tokenIndex].curBuyPrice = priceInWei;\n                    tokens[tokenIndex].buyBook[priceInWei].higherPrice = priceInWei;\n                    tokens[tokenIndex].buyBook[priceInWei].lowerPrice = 0;\n                }\n                else {\n                    //or the lowest one\n                    tokens[tokenIndex].buyBook[lowestBuyPrice].lowerPrice = priceInWei;\n                    tokens[tokenIndex].buyBook[priceInWei].higherPrice = lowestBuyPrice;\n                    tokens[tokenIndex].buyBook[priceInWei].lowerPrice = 0;\n                }\n                tokens[tokenIndex].lowestBuyPrice = priceInWei;\n            }\n            else if (curBuyPrice < priceInWei) {\n                //the offer to buy is the highest one, we don't need to find the right spot\n                tokens[tokenIndex].buyBook[curBuyPrice].higherPrice = priceInWei;\n                tokens[tokenIndex].buyBook[priceInWei].higherPrice = priceInWei;\n                tokens[tokenIndex].buyBook[priceInWei].lowerPrice = curBuyPrice;\n                tokens[tokenIndex].curBuyPrice = priceInWei;\n\n            }\n            else {\n                //we are somewhere in the middle, we need to find the right spot first...\n\n                uint buyPrice = tokens[tokenIndex].curBuyPrice;\n                bool weFoundIt = false;\n                while (buyPrice > 0 && !weFoundIt) {\n                    if (\n                    buyPrice < priceInWei &&\n                    tokens[tokenIndex].buyBook[buyPrice].higherPrice > priceInWei\n                    ) {\n                        //set the new order-book entry higher/lowerPrice first right\n                        tokens[tokenIndex].buyBook[priceInWei].lowerPrice = buyPrice;\n                        tokens[tokenIndex].buyBook[priceInWei].higherPrice = tokens[tokenIndex].buyBook[buyPrice].higherPrice;\n\n                        //set the higherPrice'd order-book entries lowerPrice to the current Price\n                        tokens[tokenIndex].buyBook[tokens[tokenIndex].buyBook[buyPrice].higherPrice].lowerPrice = priceInWei;\n                        //set the lowerPrice'd order-book entries higherPrice to the current Price\n                        tokens[tokenIndex].buyBook[buyPrice].higherPrice = priceInWei;\n\n                        //set we found it.\n                        weFoundIt = true;\n                    }\n                    buyPrice = tokens[tokenIndex].buyBook[buyPrice].lowerPrice;\n                }\n            }\n        }\n    }\n\n\n\n\n    ////////////////////////////\n    // NEW ORDER - ASK ORDER //\n    ///////////////////////////\n    function sellToken(string symbolName, uint priceInWei, uint amount) public{\n        uint8 tokenNameIndex = getSymbolIndexOrThrow(symbolName);\n        uint total_amount_ether_necessary = 0;\n        uint total_amount_ether_available = 0;\n\n\n        if (tokens[tokenNameIndex].amountBuyPrices == 0 || tokens[tokenNameIndex].curBuyPrice < priceInWei) {\n\n            //if we have enough ether, we can buy that:\n            total_amount_ether_necessary = amount * priceInWei;\n\n            //overflow check\n            require(total_amount_ether_necessary >= amount);\n            require(total_amount_ether_necessary >= priceInWei);\n            require(tokenBalanceForAddress[msg.sender][tokenNameIndex] >= amount);\n            require(tokenBalanceForAddress[msg.sender][tokenNameIndex] - amount >= 0);\n            require(balanceEthForAddress[msg.sender] + total_amount_ether_necessary >= balanceEthForAddress[msg.sender]);\n\n            //actually subtract the amount of tokens to change it then\n            tokenBalanceForAddress[msg.sender][tokenNameIndex] -= amount;\n\n            //limit order: we don't have enough offers to fulfill the amount\n\n            //add the order to the orderBook\n            addSellOffer(tokenNameIndex, priceInWei, amount, msg.sender);\n            //and emit the event.\n            LimitSellOrderCreated(tokenNameIndex, msg.sender, amount, priceInWei, tokens[tokenNameIndex].sellBook[priceInWei].offers_length);\n\n        }\n        else {\n            //market order: current buy price is bigger or equal to sell price!\n\n            //1st: find the \"highest buy price\" that is higher than the sell amount  [buy: 60@5000] [buy: 50@4500] [sell: 500@4000]\n            //2: sell up the volume for 5000\n            //3: sell up the volume for 4500\n            //if still something remaining -> sellToken limit order\n\n            //2: sell up the volume\n            //2.1 add ether to seller, add symbolName to buyer until offers_key <= offers_length\n\n\n            uint whilePrice = tokens[tokenNameIndex].curBuyPrice;\n            uint amountNecessary = amount;\n            uint offers_key;\n            while (whilePrice >= priceInWei && amountNecessary > 0) {//we start with the highest buy price.\n                offers_key = tokens[tokenNameIndex].buyBook[whilePrice].offers_key;\n                while (offers_key <= tokens[tokenNameIndex].buyBook[whilePrice].offers_length && amountNecessary > 0) {//and the first order (FIFO)\n                    uint volumeAtPriceFromAddress = tokens[tokenNameIndex].buyBook[whilePrice].offers[offers_key].amount;\n\n\n                    //Two choices from here:\n                    //1) one person offers not enough volume to fulfill the market order - we use it up completely and move on to the next person who offers the symbolName\n                    //2) else: we make use of parts of what a person is offering - lower his amount, fulfill out order.\n                    if (volumeAtPriceFromAddress <= amountNecessary) {\n                        total_amount_ether_available = volumeAtPriceFromAddress * whilePrice;\n\n\n                        //overflow check\n                        require(tokenBalanceForAddress[msg.sender][tokenNameIndex] >= volumeAtPriceFromAddress);\n                        //actually subtract the amount of tokens to change it then\n                        tokenBalanceForAddress[msg.sender][tokenNameIndex] -= volumeAtPriceFromAddress;\n\n                        //overflow check\n                        require(tokenBalanceForAddress[msg.sender][tokenNameIndex] - volumeAtPriceFromAddress >= 0);\n                        require(tokenBalanceForAddress[tokens[tokenNameIndex].buyBook[whilePrice].offers[offers_key].who][tokenNameIndex] + volumeAtPriceFromAddress >= tokenBalanceForAddress[tokens[tokenNameIndex].buyBook[whilePrice].offers[offers_key].who][tokenNameIndex]);\n                        require(balanceEthForAddress[msg.sender] + total_amount_ether_available >= balanceEthForAddress[msg.sender]);\n\n                        //this guy offers less or equal the volume that we ask for, so we use it up completely.\n                        tokenBalanceForAddress[tokens[tokenNameIndex].buyBook[whilePrice].offers[offers_key].who][tokenNameIndex] += adjustExchangeFee(tokenNameIndex, tokens[tokenNameIndex].buyBook[whilePrice].offers[offers_key].who, volumeAtPriceFromAddress);\n                        tokens[tokenNameIndex].buyBook[whilePrice].offers[offers_key].amount = 0;\n                        balanceEthForAddress[msg.sender] += total_amount_ether_available;\n                        tokens[tokenNameIndex].buyBook[whilePrice].offers_key++;\n                        SellOrderFulfilled(tokenNameIndex, volumeAtPriceFromAddress, whilePrice, offers_key);\n\n\n                        amountNecessary -= volumeAtPriceFromAddress;\n                    }\n                    else {\n                        require(volumeAtPriceFromAddress - amountNecessary > 0);\n                        //just for sanity\n                        total_amount_ether_necessary = amountNecessary * whilePrice;\n                        //we take the rest of the outstanding amount\n\n                        //overflow check\n                        require(tokenBalanceForAddress[msg.sender][tokenNameIndex] >= amountNecessary);\n                        //actually subtract the amount of tokens to change it then\n                        tokenBalanceForAddress[msg.sender][tokenNameIndex] -= amountNecessary;\n\n                        //overflow check\n                        require(tokenBalanceForAddress[msg.sender][tokenNameIndex] >= amountNecessary);\n                        require(balanceEthForAddress[msg.sender] + total_amount_ether_necessary >= balanceEthForAddress[msg.sender]);\n                        require(tokenBalanceForAddress[tokens[tokenNameIndex].buyBook[whilePrice].offers[offers_key].who][tokenNameIndex] + amountNecessary >= tokenBalanceForAddress[tokens[tokenNameIndex].buyBook[whilePrice].offers[offers_key].who][tokenNameIndex]);\n\n                        //this guy offers more than we ask for. We reduce his stack, add the eth to us and the symbolName to him.\n                        tokens[tokenNameIndex].buyBook[whilePrice].offers[offers_key].amount -= amountNecessary;\n                        balanceEthForAddress[msg.sender] += total_amount_ether_necessary;\n                        tokenBalanceForAddress[tokens[tokenNameIndex].buyBook[whilePrice].offers[offers_key].who][tokenNameIndex] += adjustExchangeFee(tokenNameIndex, tokens[tokenNameIndex].buyBook[whilePrice].offers[offers_key].who, amountNecessary);\n\n                        SellOrderFulfilled(tokenNameIndex, amountNecessary, whilePrice, offers_key);\n\n                        amountNecessary = 0;\n                        //we have fulfilled our order\n                    }\n\n                    //if it was the last offer for that price, we have to set the curBuyPrice now lower. Additionally we have one offer less...\n                    if (\n                    offers_key == tokens[tokenNameIndex].buyBook[whilePrice].offers_length &&\n                    tokens[tokenNameIndex].buyBook[whilePrice].offers[offers_key].amount == 0\n                    ) {\n\n                        tokens[tokenNameIndex].amountBuyPrices--;\n                        //we have one price offer less here...\n                        //next whilePrice\n                        if (whilePrice == tokens[tokenNameIndex].buyBook[whilePrice].lowerPrice || tokens[tokenNameIndex].buyBook[whilePrice].lowerPrice == 0) {\n                            tokens[tokenNameIndex].curBuyPrice = 0;\n                            //we have reached the last price\n                        }\n                        else {\n                            tokens[tokenNameIndex].curBuyPrice = tokens[tokenNameIndex].buyBook[whilePrice].lowerPrice;\n                            tokens[tokenNameIndex].buyBook[tokens[tokenNameIndex].buyBook[whilePrice].lowerPrice].higherPrice = tokens[tokenNameIndex].curBuyPrice;\n                        }\n                    }\n                    offers_key++;\n                }\n\n                //we set the curSellPrice again, since when the volume is used up for a lowest price the curSellPrice is set there...\n                whilePrice = tokens[tokenNameIndex].curBuyPrice;\n            }\n\n            if (amountNecessary > 0) {\n                sellToken(symbolName, priceInWei, amountNecessary);\n                //add a limit order, we couldn't fulfill all the orders!\n            }\n\n        }\n    }\n\n\n\n    ///////////////////////////\n    // ASK LIMIT ORDER LOGIC //\n    ///////////////////////////\n    function addSellOffer(uint8 tokenIndex, uint priceInWei, uint amount, address who) internal {\n        tokens[tokenIndex].sellBook[priceInWei].offers_length++;\n        tokens[tokenIndex].sellBook[priceInWei].offers[tokens[tokenIndex].sellBook[priceInWei].offers_length] = Offer(amount, who);\n\n\n        if (tokens[tokenIndex].sellBook[priceInWei].offers_length == 1) {\n            tokens[tokenIndex].sellBook[priceInWei].offers_key = 1;\n            //we have a new sell order - increase the counter, so we can set the getOrderBook array later\n            tokens[tokenIndex].amountSellPrices++;\n\n            //lowerPrice and higherPrice have to be set\n            uint curSellPrice = tokens[tokenIndex].curSellPrice;\n\n            uint highestSellPrice = tokens[tokenIndex].highestSellPrice;\n            if (highestSellPrice == 0 || highestSellPrice < priceInWei) {\n                if (curSellPrice == 0) {\n                    //there is no sell order yet, we insert the first one...\n                    tokens[tokenIndex].curSellPrice = priceInWei;\n                    tokens[tokenIndex].sellBook[priceInWei].higherPrice = 0;\n                    tokens[tokenIndex].sellBook[priceInWei].lowerPrice = 0;\n                }\n                else {\n\n                    //this is the highest sell order\n                    tokens[tokenIndex].sellBook[highestSellPrice].higherPrice = priceInWei;\n                    tokens[tokenIndex].sellBook[priceInWei].lowerPrice = highestSellPrice;\n                    tokens[tokenIndex].sellBook[priceInWei].higherPrice = 0;\n                }\n\n                tokens[tokenIndex].highestSellPrice = priceInWei;\n\n            }\n            else if (curSellPrice > priceInWei) {\n                //the offer to sell is the lowest one, we don't need to find the right spot\n                tokens[tokenIndex].sellBook[curSellPrice].lowerPrice = priceInWei;\n                tokens[tokenIndex].sellBook[priceInWei].higherPrice = curSellPrice;\n                tokens[tokenIndex].sellBook[priceInWei].lowerPrice = 0;\n                tokens[tokenIndex].curSellPrice = priceInWei;\n\n            }\n            else {\n                //we are somewhere in the middle, we need to find the right spot first...\n\n                uint sellPrice = tokens[tokenIndex].curSellPrice;\n                bool weFoundIt = false;\n                while (sellPrice > 0 && !weFoundIt) {\n                    if (\n                    sellPrice < priceInWei &&\n                    tokens[tokenIndex].sellBook[sellPrice].higherPrice > priceInWei\n                    ) {\n                        //set the new order-book entry higher/lowerPrice first right\n                        tokens[tokenIndex].sellBook[priceInWei].lowerPrice = sellPrice;\n                        tokens[tokenIndex].sellBook[priceInWei].higherPrice = tokens[tokenIndex].sellBook[sellPrice].higherPrice;\n\n                        //set the higherPrice'd order-book entries lowerPrice to the current Price\n                        tokens[tokenIndex].sellBook[tokens[tokenIndex].sellBook[sellPrice].higherPrice].lowerPrice = priceInWei;\n                        //set the lowerPrice'd order-book entries higherPrice to the current Price\n                        tokens[tokenIndex].sellBook[sellPrice].higherPrice = priceInWei;\n\n                        //set we found it.\n                        weFoundIt = true;\n                    }\n                    sellPrice = tokens[tokenIndex].sellBook[sellPrice].higherPrice;\n                }\n            }\n        }\n    }\n\n    //////////////////////////////\n    // CANCEL LIMIT ORDER LOGIC //\n    //////////////////////////////\n    function cancelOrder(string symbolName, bool isSellOrder, uint priceInWei, uint offerKey) public{\n        uint8 symbolNameIdx = getSymbolIndexOrThrow(symbolName);\n        if (isSellOrder) {\n            require(tokens[symbolNameIdx].sellBook[priceInWei].offers[offerKey].who == msg.sender);\n\n            uint tokensAmount = tokens[symbolNameIdx].sellBook[priceInWei].offers[offerKey].amount;\n            require(tokenBalanceForAddress[msg.sender][symbolNameIdx] + tokensAmount >= tokenBalanceForAddress[msg.sender][symbolNameIdx]);\n\n\n            tokenBalanceForAddress[msg.sender][symbolNameIdx] += tokensAmount;\n            tokens[symbolNameIdx].sellBook[priceInWei].offers[offerKey].amount = 0;\n            SellOrderCanceled(symbolNameIdx, priceInWei, offerKey);\n\n        }\n        else {\n            require(tokens[symbolNameIdx].buyBook[priceInWei].offers[offerKey].who == msg.sender);\n            uint etherToRefund = tokens[symbolNameIdx].buyBook[priceInWei].offers[offerKey].amount * priceInWei;\n            require(balanceEthForAddress[msg.sender] + etherToRefund >= balanceEthForAddress[msg.sender]);\n\n            balanceEthForAddress[msg.sender] += etherToRefund;\n            tokens[symbolNameIdx].buyBook[priceInWei].offers[offerKey].amount = 0;\n            BuyOrderCanceled(symbolNameIdx, priceInWei, offerKey);\n        }\n    }\n    \n    \n    function adjustExchangeFee (uint8 tokenNameIndex, address account,  uint amount) internal returns (uint) {\n        require(amount > exchangeFee);\n        require(amount - exchangeFee < amount);\n        require(tokenBalanceForAddress[address(this)][tokenNameIndex] + exchangeFee > tokenBalanceForAddress[address(this)][tokenNameIndex]);\n        // Add the token as fee to exchange account\n        tokenBalanceForAddress[address(this)][tokenNameIndex] += exchangeFee;\n        TransactionFeeApplied(tokenNameIndex, account, amount, exchangeFee, now);\n        return amount - exchangeFee;\n    }\n\n\n\n\n\n\n    ////////////////////////////////\n    // STRING COMPARISON FUNCTION //\n    ////////////////////////////////\n    function stringsEqual(string storage _a, string memory _b) view internal returns (bool) {\nbytes storage a = bytes(_a);\nbytes memory b = bytes(_b);\nif (a.length != b.length) {\nreturn false;\n}\n// @todo unroll this loop\nfor (uint i = 0; i < a.length; i ++) {\nif (a[i] != b[i]) {\nreturn false;\n}\n}\nreturn true;\n}\n\n\n}",
  "sourcePath": "/Users/iRana/Ethereum/ethereum3-exchange/contracts/Exchange.sol",
  "schemaVersion": "1.0.0",
  "updatedAt": "2017-12-22T08:08:13.284Z"
}